:020000040800F2
:100000000080012021470008B1460008B3460008DF
:10001000B5460008B7460008B946000800000000D1
:10002000000000000000000000000000BB460008C7
:10003000BD46000800000000BF460008C146000899
:1000400071470008714700087147000871470008B0
:1000500071470008714700087147000871470008A0
:100060007147000871470008714700087147000890
:100070007147000871470008714700087147000880
:1000800071470008C9460008714700087147000819
:100090007147000871470008714700087147000860
:1000A0007147000871470008714700087147000850
:1000B0007147000871470008714700087147000840
:1000C0007147000871470008714700087147000830
:1000D0007147000871470008714700087147000820
:1000E0007147000871470008714700087147000810
:1000F0007147000871470008714700087147000800
:1001000071470008714700087147000871470008EF
:1001100071470008714700087147000871470008DF
:1001200071470008714700087147000871470008CF
:1001300071470008714700087147000871470008BF
:1001400071470008714700087147000871470008AF
:10015000714700087147000871470008714700089F
:10016000714700087147000871470008714700088F
:10017000714700087147000871470008000000003F
:080180007147000871470008F7
:1001880010B5054C237833B9044B13B10448AFF3C9
:1001980000800123237010BDE8010020000000004A
:1001A800DC4E000808B5034B1BB103490348AFF305
:1001B800008008BD00000000EC010020DC4E0008B3
:1001C800034613F8012B002AFBD1181A013870478F
:1001D80081F0004102E000BF83F0004330B54FEAF0
:1001E80041044FEA430594EA050F08BF90EA020F5D
:1001F8001FBF54EA000C55EA020C7FEA645C7FEAF0
:10020800655C00F0E2804FEA5454D4EB5555B8BF12
:100218006D420CDD2C4480EA020281EA030382EA83
:10022800000083EA010180EA020281EA0303362D15
:1002380088BF30BD11F0004F4FEA01314FF4801CE8
:100248004CEA113102D0404261EB410113F0004FFA
:100258004FEA03334CEA133302D0524263EB4303B1
:1002680094EA050F00F0A780A4F10104D5F1200E4F
:100278000DDB02FA0EFC22FA05F2801841F10001AA
:1002880003FA0EF2801843FA05F359410EE0A5F17E
:1002980020050EF1200E012A03FA0EFC28BF4CF0AF
:1002A800020C43FA05F3C01851EBE37101F0004565
:1002B80007D54FF0000EDCF1000C7EEB00006EEB72
:1002C8000101B1F5801F1BD3B1F5001F0CD34908FC
:1002D8005FEA30004FEA3C0C04F101044FEA445253
:1002E80012F5800F80F09A80BCF1004F08BF5FEADA
:1002F800500C50F1000041EB045141EA050130BDBA
:100308005FEA4C0C404141EB010111F4801FA4F15C
:100318000104E9D191F0000F04BF01460020B1FAB1
:1003280081F308BF2033A3F10B03B3F120020CDAE9
:100338000C3208DD02F1140CC2F10C0201FA0CF0C7
:1003480021FA02F10CE002F11402D8BFC2F1200C2C
:1003580001FA02F120FA0CFCDCBF41EA0C019040E2
:10036800E41AA2BF01EB0451294330BD6FEA04042B
:100378001F3C1CDA0C340EDC04F11404C4F1200216
:1003880020FA04F001FA02F340EA030021FA04F328
:1003980045EA030130BDC4F10C04C4F1200220FA7F
:1003A80002F001FA04F340EA0300294630BD21FABD
:1003B80004F0294630BD94F0000F83F4801306BF83
:1003C80081F480110134013D4EE77FEA645C18BF77
:1003D8007FEA655C29D094EA050F08BF90EA020F0E
:1003E80005D054EA000C04BF1946104630BD91EA06
:1003F800030F1EBF0021002030BD5FEA545C05D109
:100408004000494128BF41F0004130BD14F5800447
:100418003CBF01F5801130BD01F0004545F0FE41BB
:1004280041F470014FF0000030BD7FEA645C1ABFF0
:10043800194610467FEA655C1CBF0B46024650EA27
:10044800013406BF52EA033591EA030F41F4002153
:1004580030BD00BF90F0000F04BF0021704730B5D9
:100468004FF4806404F132044FF000054FF00001AE
:1004780050E700BF90F0000F04BF0021704730B56F
:100488004FF4806404F1320410F0004548BF404244
:100498004FF000013EE700BF42004FEAE2014FEA99
:1004A80031014FEA02701FBF12F07F4393F07F4F74
:1004B80081F06051704732F07F4208BF704793F077
:1004C8007F4F04BF41F40021704730B54FF460748A
:1004D80001F0004521F000411CE700BF50EA01028D
:1004E80008BF704730B54FF000050AE050EA010236
:1004F80008BF704730B511F0004502D5404261EBA6
:1005080041014FF4806404F132045FEA915C3FF4E6
:10051800D8AE4FF003025FEADC0C18BF03325FEA83
:10052800DC0C18BF033202EBDC02C2F1200300FA34
:1005380003FC20FA02F001FA03FE40EA0E0021FA59
:1005480002F11444BDE600BF70B54FF0FF0C4CF447
:10055800E06C1CEA11541DBF1CEA135594EA0C0FF9
:1005680095EA0C0F00F0DEF82C4481EA030621EA34
:100578004C5123EA4C5350EA013518BF52EA03356F
:1005880041F4801143F4801338D0A0FB02CE4FF021
:100598000005E1FB02E506F00042E0FB03E54FF051
:1005A8000006E1FB03569CF0000F18BF4EF0010E49
:1005B800A4F1FF04B6F5007F64F5407404D25FEA45
:1005C8004E0E6D4146EB060642EAC62141EA5551F8
:1005D8004FEAC52040EA5E504FEACE2EB4F1FD0C3A
:1005E80088BFBCF5E06F1ED8BEF1004F08BF5FEAB8
:1005F800500E50F1000041EB045170BD06F000466A
:1006080046EA010140EA020081EA0301B4EB5C0416
:10061800C2BFD4EB0C0541EA045170BD41F480110E
:100628004FF0000E013C00F3AB8014F1360FDEBF33
:10063800002001F0004170BDC4F10004203C35DA0F
:100648000C341BDC04F11404C4F1200500FA05F392
:1006580020FA04F001FA05F240EA020001F0004233
:1006680021F0004110EBD37021FA04F642EB0601A9
:100678005EEA430E08BF20EAD37070BDC4F10C04D3
:10068800C4F1200500FA04F320FA05F001FA04F297
:1006980040EA020001F0004110EBD37041F1000183
:1006A8005EEA430E08BF20EAD37070BDC4F120058E
:1006B80000FA05F24EEA020E20FA04F301FA05F2F6
:1006C80043EA020321FA04F001F0004121FA04F29E
:1006D80020EA020000EBD3705EEA430E08BF20EA6E
:1006E800D37070BD94F0000F0FD101F000464000A8
:1006F80041EB010111F4801F08BF013CF7D041EA2A
:10070800060195F0000F18BF704703F0004652002D
:1007180043EB030313F4801F08BF013DF7D043EAFE
:100728000603704794EA0C0F0CEA135518BF95EAB4
:100738000C0F0CD050EA410618BF52EA4306D1D13B
:1007480081EA030101F000414FF0000070BD50EA5A
:10075800410606BF1046194652EA430619D094EAE4
:100768000C0F02D150EA013613D195EA0C0F05D1CE
:1007780052EA03361CBF104619460AD181EA030122
:1007880001F0004141F0FE4141F470014FF00000DA
:1007980070BD41F0FE4141F4780170BD70B54FF075
:1007A800FF0C4CF4E06C1CEA11541DBF1CEA1355F5
:1007B80094EA0C0F95EA0C0F00F0A7F8A4EB0504D7
:1007C80081EA030E52EA03354FEA013100F08880CE
:1007D8004FEA03334FF0805545EA131343EA126397
:1007E8004FEA022245EA111545EA10654FEA00264C
:1007F8000EF000419D4208BF964244F1FD0404F505
:10080800407402D25B084FEA3202B61A65EB030560
:100818005B084FEA32024FF480104FF4002CB6EB1D
:10082800020E75EB030E22BFB61A754640EA0C009D
:100838005B084FEA3202B6EB020E75EB030E22BFDD
:10084800B61A754640EA5C005B084FEA3202B6EB1E
:10085800020E75EB030E22BFB61A754640EA9C00DD
:100868005B084FEA3202B6EB020E75EB030E22BFAD
:10087800B61A754640EADC0055EA060E18D04FEA6B
:10088800051545EA16754FEA06164FEAC30343EA0B
:1008980052734FEAC2025FEA1C1CC0D111F4801FD8
:1008A8000BD141EA00014FF000004FF0004CB6E7D1
:1008B80011F4801F04BF01430020B4F1FD0C88BF70
:1008C800BCF5E06F3FF6AFAEB5EB030C04BFB6EB7B
:1008D800020C5FEA500C50F1000041EB045170BD6E
:1008E8000EF0004E4EEA113114EB5C04C2BFD4EB9B
:1008F8000C0541EA045170BD41F480114FF0000E1F
:10090800013C90E645EA060E8DE60CEA135594EA9A
:100918000C0F08BF95EA0C0F3FF43BAF94EA0C0F9D
:100928000AD150EA01347FF434AF95EA0C0F7FF412
:1009380025AF104619462CE795EA0C0F06D152EA66
:1009480003353FF4FDAE1046194622E750EA41064A
:1009580018BF52EA43067FF4C5AE50EA41047FF45B
:100968000DAF52EA43057FF4EBAE12E74FF0FF3CC0
:1009780006E000BF4FF0010C02E000BF4FF0010C91
:100988004DF804CD4FEA410C7FEA6C5C4FEA430C0A
:1009980018BF7FEA6C5C1BD001B050EA410C0CBF59
:1009A80052EA430C91EA030F02BF90EA020F0020BB
:1009B800704710F1000F91EA030F58BF994208BF22
:1009C80090422CBFD8176FEAE37040F001007047DF
:1009D8004FEA410C7FEA6C5C02D150EA013C07D136
:1009E8004FEA430C7FEA6C5CD6D152EA033CD3D081
:1009F8005DF8040B704700BF8446104662468C467B
:100A08001946634600E000BF01B5FFF7B7FF0028AD
:100A180048BF10F1000F01BD4DF808EDFFF7F4FFD6
:100A28000CBF012000205DF808FB00BF4DF808ED61
:100A3800FFF7EAFF34BF012000205DF808FB00BF84
:100A48004DF808EDFFF7E0FF94BF012000205DF8A6
:100A580008FB00BF4DF808EDFFF7CEFF94BF01205B
:100A680000205DF808FB00BF4DF808EDFFF7C4FF54
:100A780034BF012000205DF808FB00BF4FEA410C9D
:100A88007FEA6C5C02D150EA013C0AD14FEA430C80
:100A98007FEA6C5C02D152EA033C02D14FF00000BD
:100AA80070474FF0010070474FEA410212F50012FB
:100AB80015D211D56FF47873B3EB625212D94FEA9D
:100AC800C12343F0004343EA505311F0004F23FA87
:100AD80002F018BF404270474FF00000704750EADC
:100AE800013005D111F0004008BF6FF00040704799
:100AF8004FF00000704700BF70B50D4E0D4CA41BA1
:100B0800A4100025A54209D10B4E0C4C04F0E2F9C3
:100B1800A41BA4100025A54205D170BD56F82530A8
:100B280098470135EEE756F8253098470135F2E742
:100B38000852000808520008085200080C52000821
:100B480002440346934200D1704703F8011BF9E7BA
:100B58002DE9FF4755EC104B0D9FDDF830A0002D17
:100B68000E4691461946B8BF22462B4627F0200765
:100B7800BBBF05F100431D4600232D23B8BF144613
:100B8800462F0B7004D0452F00D10136022100E01A
:100B9800032103AB019302AB00933246534645EC65
:100BA800104B00F0ADFB472F804602D119F0010F22
:100BB80026D0462F08EB060911D198F80030302BC3
:100BC8000AD10022002320462946FFF725FF18B93D
:100BD800C6F10106CAF80060DAF80030994400222C
:100BE800002320462946FFF717FF38B93022039B18
:100BF8004B4505D2591C03911A70F8E7CDF80C90B3
:100C0800039B0E9AA3EB08034046136004B0BDE8AB
:100C1800F087F7B500290446BABF49422D232B2394
:100C2800092904F8022B437020DD0DF107031F4644
:100C38000A2691FBF6F506FB15113031092D03F84C
:100C4800011C03F1FF32294609DC3031023B02F86E
:100C5800011CBB42224604D3101A03B0F0BD134650
:100C6800E7E713F8012B04F8012BF2E730231944C6
:100C78008370021DC170EFE72DE9F04F8DB00C466F
:100C8800DDF8588016461F46054601F0F1F803685E
:100C980004931846FFF794FA00230A93D8F8003013
:100CA8000590073323F0070303F1080294F818A00E
:100CB800D4F800B0C8F80020D3E90023C4E912230F
:100CC800D4E9128929F000430793CDF818804FF032
:100CD800FF32A74BDDE90601FFF7D0FE70BB4FF0EE
:100CE800FF32A34BDDE90601FFF7AAFE30BB002265
:100CF800002340464946FFF799FE10B12D2384F89A
:100D080043309C4A9C4BBAF1470F8CBF904698469B
:100D180003232BF00402236122604FF0000900979F
:100D280033460BAA2146284600F0E6F9013040F088
:100D38008D804FF0FF300DB0BDE8F08F42464B4636
:100D480040464946FFF79AFE10B18C4A8C4BDAE7C9
:100D580061684B1C4BF480620AA83ED1062363608D
:100D68000023CDE9020309AB009349EC108B0DF188
:100D780023032260CDF804A061682846FFF7E8FE47
:100D88000AF0DF03472B804609D1099BD81C02DBF8
:100D98006268934247DDAAF1020A5FFA8AFABAF159
:100DA800650F099924D80139524604F15000099178
:100DB800FFF72FFF0A9A1318012A8146236102DCE4
:100DC8002268D10701D5013323619DF82330002B18
:100DD800A5D02D2384F84330A1E7BAF1670F00F0BE
:100DE8007781BAF1470FBBD10029B9D10123B6E702
:100DF800BAF1660F19D1002963680CDD216113B9B6
:100E08002268D20702D501330B442361099BA365ED
:100E18004FF00009D9E713B92268D00701D502338A
:100E2800F3E70123F1E74FF0670ADDE9093293425E
:100E380005DB22682361D107E8D50133E5E7002BFC
:100E4800D4BFC3F1020301231344DEE723685A0524
:100E580007D42369424631462846B84701302BD18A
:100E680067E7BAF1650F40F2DC8000220023D4E97D
:100E78001201FFF7D1FD002833D00123414A314642
:100E88002846B84701303FF454AFDDE909239A42B8
:100E980002DB2368D8070FD5DDE90423314628464D
:100EA800B84701303FF445AF4FF0000804F11A0984
:100EB8000A9B013B434509DC23689B0700F103813A
:100EC800E0680B9B9842B8BF184634E701234A46AE
:100ED80031462846B84701303FF42BAF08F10108E6
:100EE800E6E7099B002B2BDC0123264A31462846DE
:100EF800B84701303FF41DAF099B23B90A9B13B9CA
:100F08002368D907D8D5DDE9042331462846B847F0
:100F180001303FF40EAF4FF0000904F11A0A099BA3
:100F28005B424B4501DC0A9B94E70123524631465C
:100F38002846B84701303FF4FCAE09F10109EEE755
:100F48000A9AA36D9A42A8BF1A46002A914607DD5D
:100F58001346314642462846B84701303FF4E9AEC9
:100F680004F11A034FF0000B29EAE979069315E01A
:100F7800FFFFEF7F484F0008444F0008504F00081C
:100F88004C4F0008544F00080123069A3146284662
:100F9800B84701303FF4CDAE0BF1010BD4F858A09F
:100FA800AAEB09035B45EFDCDDE909239A42D0444B
:100FB80015DB2368DA0712D40A9B0999A3EB0A0206
:100FC800A3EB010A9245A8BF9246BAF1000F0EDCC6
:100FD8004FF000082AEAEA7A04F11A0919E0DDE973
:100FE800042331462846B8470130E5D1A1E65346E7
:100FF800424631462846B8470130E9D199E60123EF
:101008004A4631462846B84701303FF492AE08F1C7
:101018000108DDE909239B1AA3EB0A034345EEDC2B
:101028004AE70A9A012A01DCDB073AD5012342463E
:1010380031462846B84701303FF47BAEDDE904234A
:1010480031462846B847013008F101083FF471AE2F
:101058000A9B002203F1FF3AD4E912010023FFF7AB
:10106800DBFCC8B95346424631462846B8470130EA
:101078000ED15EE60123524631462846B847013074
:101088003FF457AE08F101080A9B013B4345F1DCE8
:101098004B4604F15002DEE64FF0000804F11A0A4C
:1010A800F2E70123DFE701234A4631462846B847DD
:1010B80001303FF43EAE08F10108E3680B9A9B1A31
:1010C8004345F0DCFCE64FF0000804F11909F4E7A9
:1010D80000293FF48BAE0023CDE9020309AB00934E
:1010E80049EC108B2260CDF804A00DF123032846AB
:1010F800FFF72EFD804648E62DE9F04791461F464A
:101108008A680B69DDF820809342B8BF1346C9F896
:10111800003091F8432006460C4612B10133C9F855
:1011280000302368990642BFD9F800300233C9F865
:101138000030256815F0060507D104F1190AE3689F
:10114800D9F800209B1AAB4228DC94F84330226877
:10115800003318BF012392062DD404F14302394607
:101168003046C047013020D02368E568D9F8002010
:1011780003F00603042B08BFAD1AA36822690CBF4D
:1011880025EAE57500259342C4BF9B1AED184FF078
:1011980000091A344D451AD1002008E001235246AF
:1011A80039463046C047013003D14FF0FF30BDE823
:1011B800F0870135C3E7E1185A1C302081F8430055
:1011C800224494F8451082F843100233C5E70123FE
:1011D800224639463046C0470130E6D009F10109B8
:1011E800D8E72DE9F74F03690C69A3428046C0F29E
:1011F8008280013C01F114074FEA840C00F11406C7
:1012080057F8245056F8240006EB0C03013507EB79
:101218000C090193B0FBF5F595B34FF0000A384679
:10122800B646D34650F8042B93B205FB03A34FEA06
:10123800134A9BB2ABEB0303120CDEF800B005FBBC
:1012480002A213FA8BF34FEA124A1FFA82FBDEF866
:101258000020CBEB124202EB23429BB243EA02434B
:1012680081454FEA224B4EF8043BDBD256F80C304E
:1012780033B9019B043B9E421A4630D3C8F810404C
:10128800404601F02BF8002825DB013530464FF0A9
:10129800000C57F8042BD0F800E093B2ACEB030332
:1012A800120C13FA8EF3C2EB1E4202EB23429BB2DE
:1012B80043EA0243B9454FEA224C40F8043BE8D2DE
:1012C80056F8242006EB84032AB9043B9E421A46AA
:1012D8000BD3C8F81040284603B0BDE8F08F126859
:1012E800043B002ACAD1013CC5E71268043B002A26
:1012F800EFD1013CEAE70020EEE700000000000023
:101308002DE9F04F57EC106B97B0456A06910446EB
:101318000B921293DDF88080CDE900673DB910206B
:1013280000F0B4FD6062C0E901550560C560636AFC
:10133800196851B15A684A60012393408B6020466E
:1013480000F0EBFD636A00221A603B1EBBBF23F06E
:101358000043019300230122ACBFC8F80030C8F84D
:101368000020AF4BDDF8048033EA080314D1129A49
:1013780042F20F731360009B23B9C8F313000028CF
:1013880000F04285219BDFF8ACB2002B00F04485C9
:101398000BF1030300F03EBDDDE9006700220023E6
:1013A80030463946FFF738FB814668B1129A012367
:1013B8001360219B002B00F024859A4B219A03F19E
:1013C800FF3B136000F028BD14AA15A947EC106B69
:1013D800204600F0FAFFC8F30A550490002D7CD08F
:1013E800C7F3130343F07F5BB2464BF4401BA5F2EF
:1013F800FF35CDF84C9000228B4B50465946FEF7EE
:10140800EBFE81A3D3E90023FFF79EF880A3D3E97D
:101418000023FEF7E3FE064628460F46FFF72AF8A4
:101428007DA3D3E90023FFF78FF802460B46304629
:101438003946FEF7D3FE06460F46FFF735FB002276
:101448008246002330463946FFF7F0FA48B1504645
:10145800FFF710F832463B46FFF7DEFA08B90AF103
:10146800FF3ABAF1160F59D8704901EBCA01DDE904
:101478000023D1E90001FFF7F7FA002850D00AF15C
:10148800FF3A00230F93149B5D1BB5F1010849BF78
:10149800C5F10103002305934FF0000858BF0593D9
:1014A800BAF1000F3EDB0023D044CDF838A00793F3
:1014B800069B092B00F29080052BC4BF043B0693C2
:1014C800069BA3F10203CCBF00250125032B00F2E4
:1014D8008F80DFE803F07D7F3171DDE914531D440F
:1014E80005F23240202813DDC0F14000009B08FAC5
:1014F80000F805F2124023FA00F048EA0000FEF76F
:10150800A9FF01238246A1F1F87B013D139372E7FD
:10151800009BC0F1200003FA00F0F0E70123B1E7D7
:101528000F90B0E7059BA3EB0A030593CAF10003EC
:10153800079300230E93BBE701230A930B9B002B11
:1015480059DD02939946666A00227260042202F10C
:1015580014009842716853D9204600F0AAFC636AC7
:101568003060B9F10E0FD3F800B000F2E680002D1C
:1015780000F0E3809DED007BBAF1000F8DED107B4C
:1015880074DD2A4A0AF00F0302EBC30393ED007BD4
:101598004FEA2A16F0068DED087B65D5244BDDE968
:1015A8001001D3E90823FFF7F9F8CDE9000106F0A7
:1015B8000F0603251E4F4CE001230A930B9B53444F
:1015C80003F1010902934B46012BB8BF0123BAE787
:1015D8000023B2E70023F0E70125002306930A95CC
:1015E8004FF0FF3302939946002212230B92AAE789
:1015F80001230A93F4E70123029399461A46F5E773
:10160800013171605200A2E761436F63A787D23F3F
:10161800B3C8608B288AC63FFB799F501344D33FD9
:101628000000F07F554F00080000F83F904F000879
:10163800684F00085F4F0008F10708D5DDE9080189
:10164800D7E90023FEF780FFCDE9080101357610C0
:101658000837002EF0D1DDE90823DDE90001FFF7A6
:101668009DF8CDE900011AE00225A3E700F0A0806B
:10167800CAF100069F4BA04F06F00F0203EBC2030E
:10168800D3E90023DDE91001FEF75EFFCDE9000193
:10169800361100230225002E7FD1002BE1D10F9BAC
:1016A800002B00F08780DDE900670022934B30466D
:1016B8003946FFF7BBF900287CD0B9F1000F79D083
:1016C800029B002B35DD0AF1FF33089339460022CF
:1016D8008B4B3046FEF738FFCDE90001029F0135FC
:1016E8002846FEF7C7FEDDE90023FEF72DFF00229E
:1016F800844BFEF773FD0546A1F15076002F5DD1AE
:101708000022814BDDE90001FEF766FD2A463346DB
:10171800CDE90001FFF7A8F9002840F088822A46A1
:1017280006F10043DDE90001FFF780F9002840F0E9
:101738007C82DDE91023CDE90023159B002BC0F244
:101748005081BAF10E0F00F34C816A4B03EBCA03C8
:1017580093ED007B0B9B002B8DED027B80F2D880F4
:10176800B9F1000F00F3D48040F05E820022664B8E
:1017780051EC170BFEF7E8FEDDE90023FFF76AF9E5
:101788004F464E46002840F0348231230BF10105C4
:101798008BF800300AF1010A2FE2F20705D5D7E9E4
:1017A8000023FEF7D1FE013501237610083772E7D2
:1017B800022574E7CDF820A04F4691E74D4B03EB87
:1017C800C70353E902010A9B002B47D002460B4688
:1017D80000204E49FEF7E2FF2A463346FEF7FCFC9E
:1017E800CDE90C015D46DDE90001FFF75DF906462C
:1017F800FEF740FE02460B46DDE90001FEF7ECFC71
:10180800303605F8016BDDE90C23CDE90001FFF75F
:101818000DF9002863D1DDE9002300203749FEF7E0
:10182800DBFCDDE90C23FFF701F9002840F0B78065
:10183800A5EB0B039F427FF77CAF0022304BDDE91D
:101848000C01FEF781FE0022CDE90C012C4BDDE9ED
:101858000001FEF779FECDE90001C4E72A463346C8
:10186800FEF772FECDE90C010BEB07055E46DDE9DC
:101878000001FFF719F90746FEF7FCFD303702466D
:101888000B46DDE90001FEF7A7FC06F8017BAE4236
:10189800CDE900014FF0000226D11C4BDDE90C0117
:1018A800FEF79CFC02460B46DDE90001FFF7DCF879
:1018B800002874D1DDE90C2300201449FEF78CFCC4
:1018C80002460B46DDE90001FFF7B0F800283FF4B7
:1018D80030AF15F8013C302B05F1FF3202D0DDF8AE
:1018E80020A04AE01546F4E7054BFEF72DFECDE9AA
:1018F8000001BCE7904F0008684F00080000F03F67
:101908000000244000001C40000014400000E03F9C
:10191800DDE900675D46DDE9022330463946FEF71A
:101928003DFFFFF7C1F88046FEF7A4FDDDE902237D
:10193800FEF70AFE02460B463046394608F13006E5
:10194800FEF74AFC05F8016BA5EB0B06B14502460C
:101958000B4639D1FEF742FCDDE9022306460F4665
:10196800FFF782F8C8B9DDE9022330463946FFF7A8
:1019780053F810B118F0010F0FD10499204600F068
:10198800CCFA0023129A2B700AF101031360219BF1
:10199800002B00F041821D603EE2CDF820A015F832
:1019A800012C392A05F1FF3308D19B450AD1089B40
:1019B8000133089330238BF800305B461A780132E4
:1019C8001A708CE71D46EAE700229B4BFEF7BCFD28
:1019D8000022002306460F46FFF71EF800289AD07B
:1019E800CBE70A9A002A00F08B80069A012A6EDC5F
:1019F800139A002A67D003F23343079F059D059A7F
:101A080001211A4420460592984400F026FB064618
:101A1800002D0CDDB8F1000F09DD4545059A2B4670
:101A2800A8BF4346D21A0592ED1AA8EB0308079BF4
:101A3800EBB10A9B002B67D08FB131463A4620465E
:101A480000F0AAFB049A01460646204600F00EFB69
:101A580004990890204600F060FA089B0493079BBD
:101A6800DA1B04D00499204600F096FB049001216B
:101A7800204600F0F2FA0E9B0746002B00F0D081BA
:101A88001A460146204600F087FB069B012B0746B5
:101A980040DC009B002B39D1019BC3F31303002BBF
:101AA80036D1019B23F000431B0D1B052BB1059B71
:101AB8000133059308F10108012307930E9B002BBE
:101AC8002AD1012030E0149BC3F1360395E7079B28
:101AD80009F1FF37BB42BFBF079B0797FA1A0E9B56
:101AE800BBBF9B180E93DF1B0027B9F1000FB5BFD2
:101AF800059B059DA3EB09054B46B8BF00237EE770
:101B0800079F059D0A9E83E7079AABE70023D4E762
:101B1800009BD2E7002307933B6907EB830318690F
:101B280000F04DFAC0F12000404410F01F0047D0EB
:101B3800C0F12003042B3BDD059BC0F11C000344CE
:101B4800059305448044059B002B05DD1A4604993E
:101B5800204600F06FFB0490B8F1000F05DD394610
:101B68004246204600F066FB07460F9B53B33946B2
:101B7800049800F0B3FB002824DA00230A22049911
:101B8800204600F0E1F90A9B04900AF1FF3A002B85
:101B980000F04D81002331460A22204600F0D4F996
:101BA800029B002B06464FDC069B022B4CDD11E006
:101BB800C9D0059A1C331A4405921D449844C2E7BB
:101BC8000346F6E7B9F1000F38DC069B022B35DD3A
:101BD800CDF80890029B63B939460522204600F0EB
:101BE800B3F901460746049800F078FB00283FF750
:101BF800CCAD0B9B5D466FEA030A4FF000093946EE
:101C0800204600F08AF9002E3FF4B7AEB9F1000F74
:101C180005D0B14503D04946204600F07EF931464B
:101C2800204600F07AF9A8E600273E46E1E7DDF80D
:101C380020A03E46A9E500BF000024400A9BCDF83D
:101C48000890002B00F0FA80002D05DD31462A4669
:101C5800204600F0EFFA0646079B002B4CD071682F
:101C6800204600F026F9326902320546920006F154
:101C78000C010C3000F012F901222946204600F030
:101C8800D9FA009BCDF814B003F00103B1460793CD
:101C9800064639460498FFF7A4FA4946054600F176
:101CA8003008049800F01AFB324600903946204666
:101CB80000F02EFBC368024603BB01460890049857
:101CC80000F00CFB089A034611462046089300F0E2
:101CD80024F9089BA3B9069A92B9079A82B9B8F170
:101CE800390F29D0009B002B01DD05F13108059B38
:101CF8005D1C83F8008082E73046C2E70123E3E7F2
:101D0800009A002A04DB25D1069A1ABB079A0ABB57
:101D1800002BECDD01220499204600F08BFA3946AD
:101D2800049000F0DBFA002803DCE0D118F0010F82
:101D3800DDD0B8F1390FD8D1059B059A5D1C392340
:101D4800137015F8013C392B05F1FF324FD00133E0
:101D5800137054E7059A002B02F1010506DDB8F16E
:101D6800390FE9D008F10108059BC2E7029A05F886
:101D7800018CA5EB0B03934221D000230A2204997E
:101D8800204600F0E1F8B14504904FF000034FF011
:101D98000A024946204605D100F0D6F88146064693
:101DA800059576E700F0D0F83146814600230A22EF
:101DB800204600F0C9F80646F2E74FF00009012274
:101DC8000499204600F036FA3946049000F086FA65
:101DD8000028B6DC02D118F0010FB2D115F8013C89
:101DE800302B05F1FF327FF40AAF1546F6E793452D
:101DF80005D131230AF1010A8BF80030FFE61546B8
:101E08009FE7DFF864B007E0219BDFF860B01BB103
:101E18000BF10803219A1360584617B0BDE8F08FFC
:101E2800069B012B7FF735AE0E9B079349E6029B75
:101E3800002B03DC069B022B3FF7CCAE5D463946F0
:101E48000498FFF7CEF900F1300805F8018B029AE3
:101E5800A5EB0B039A42B0DD00230A220499204621
:101E680000F072F80490EAE7544F0008564F000853
:101E7800044B1B68186A044B002808BF1846F0304A
:101E8800704700BF0C00002070000020024B014684
:101E9800186800F045BB00BF0C00002010B5431EB9
:101EA8000A44914200D110BD11F8014B03F8014FCB
:101EB800F7E770B5456A04460E463DB91020FFF7AE
:101EC800E5FF6062C0E901550560C560656AEB68B9
:101ED80083B1636ADB6853F82600B8B9012101FAB7
:101EE80006F56A1D9200204600F0BEFA60B1C0E90E
:101EF80001650EE021220421204600F0B5FA636A4C
:101F0800E860DB68002BE4D1002070BD026843F86C
:101F180026200023C0E90333F7E770B5446A064674
:101F28000D463CB91020FFF7B1FF7062C0E90144CB
:101F38000460C4603DB1736A6A68DB6853F82210B4
:101F4800296043F8225070BD2DE9F0410D691F4604
:101F580006460C4601F1140C0023DCF8000081B29F
:101F680002FB01710F0C000C02FB007089B20133F7
:101F780001EB00419D424FEA10474CF8041BECDC92
:101F8800D7B1A368AB4212DC616830460131FFF774
:101F980090FF2269023204F10C01804692000C3055
:101FA800FFF77CFF21463046FFF7B7FF444604EBB6
:101FB800850301355F6125612046BDE8F081020C8B
:101FC80012040346B2B90304102013F07F4F04BF74
:101FD8001B02083013F0704F04BF1B01043013F0CC
:101FE800404F04BF9B000230002B06DB5B0003D58B
:101FF800013070470020E8E720207047036813F09D
:10200800070201460BD0DA0723D4980749BF5B08BB
:102018009B0801200B605CBF0B600220704798B2E0
:10202800A8B91B0C102013F0FF0F04BF1B0A0830BF
:102038001A0704BF1B0904309A0704BF9B08023023
:10204800DA0702D45B0806D001300B6070471046EF
:10205800E9E7002070472020704710B50C460121A1
:10206800FFF727FF01224461026110BD2DE9F74FF8
:1020780014460A6923699A42B8BF0B468846BCBF12
:10208800A0461C46D8F81070D4F81090D8F808303C
:10209800D8F8041007EB0906B342B8BF0131FFF7BF
:1020A80008FF00F1140505EB860E2B460022734548
:1020B80016D304F1140208F1140102EB890301EBB1
:1020C80087070093009B019293420CD8002E03DDF2
:1020D8005EF8043D002B5DD0066103B0BDE8F08FCB
:1020E80043F8042BE3E7B2F800B0BBF1000F23D0AC
:1020F8008946AC464FF0000859F8044BDCF800A0BC
:10210800A3B21FFA8AFA0BFB03A34FEA144ADCF8BE
:10211800004043444FEA14480BFB0A8404EB134481
:10212800E2469BB243EA04434F454FEA14484AF853
:10213800043B2BD8CCF80480019BB3F802A00432EE
:10214800BAF1000F20D02B688946A8464FF0000B43
:10215800B9F800C0B8F802400AFB0C445C44C44615
:102168009BB243EA04434CF8043B59F8043BB8F8E3
:1021780004B01B0C0AFB03B303EB14434F454FEAAF
:10218800134B05D8C8F8043004359BE7D446B3E7A9
:10219800E046DDE7013E99E72DE9F843154612F0E0
:1021A800030206460F4607D0013A214C002354F893
:1021B8002220FFF7C9FE0746AD1035D0746A3CB936
:1021C8001020FFF763FE7062C0E901440460C46038
:1021D800D6F82480D8F808404CB940F2712130462E
:1021E800FFF73BFF0023C8F80800044603604FF0E0
:1021F8000008EB070AD5394622463046FFF736FF76
:10220800394681463046FFF788FE4F466D100BD0A1
:10221800206838B9224621463046FFF727FF20605C
:10222800C0F800800446E4E73846BDE8F88300BFFC
:10223800585000082DE9F0470C464FEA621A236906
:1022480049680AEB0309A3680746164609F1010520
:10225800AB4232DB3846FFF72CFE0023804600F104
:1022680014011A4653452BDB20692AEAEA7A04F15D
:10227800140316F01F0201EB8A0103EB800C25D032
:10228800C2F1200E00201E688A46964030434AF864
:10229800040B53F8040B9C4520FA0EF014D8486040
:1022A80008B109F10205013D3846C8F81050214629
:1022B800FFF733FE4046BDE8F08701315B00C7E712
:1022C80041F823200133CDE75146DCE7043953F8C0
:1022D800042B41F8042F9C45F9D8E4E703690A69FF
:1022E8009B1A30B50CD19200143014318418114463
:1022F80054F8045D51F8042D954203D005D3012309
:10230800184630BDA042F3D3FAE74FF0FF33F7E7A2
:102318002DE9F0470D460746114628461446FFF7B3
:10232800DDFF061E08D131463846FFF7C2FD0123FE
:10233800C0E90436BDE8F087A4BF23462C463846DA
:102348006168A6BF1D4600260126FFF7B2FD2B696E
:10235800C660266905F1140904F1140202EB860728
:1023680009EB830800F114054FF0000E52F804AB96
:1023780059F8044B1EFA8AF1A3B2C91A230CC3EB0D
:102388001A4303EB214389B24FEA234EC84541EA79
:102398000343944645F8043BE8D8BC4504D355F8B4
:1023A800043D83B10661C5E75CF8041B1EFA81F39E
:1023B8001A1402EB11429BB243EA02434FEA224E3F
:1023C80045F8043BE9E7013EE9E72DE9F7430E4606
:1023D800012159EC108B1546FFF76BFDC9F30A5420
:1023E8000746C9F3130334BB0193B8F1000327D0A0
:1023F80002A840F8083DFFF701FE0099F0B1019AE4
:10240800C0F1200302FA03F30B43C2407B6101923F
:10241800019BBB61002B14BF022101213961C4B1AA
:10242800A4F2334404443460C0F1350028603846CF
:1024380003B0BDE8F08343F48013D5E77961E7E79B
:1024480001A8FFF7DBFD019B7B6101213961203089
:10245800E5E707EB8103A0F2324030601869FFF727
:10246800AEFDC0EB4110E1E738B502FB01F42146AF
:1024780000F056F8054618B122460021FEF760FB29
:10248800284638BD38B50546002945D051F8043CE2
:102498000C1F002BB8BFE41800F0BEF81F4A1368E1
:1024A800104633B9636014602846BDE8384000F030
:1024B800B4B8A3420CD921686218934204BF1A68C1
:1024C8005B68636004BF521822600460ECE713463F
:1024D8005A680AB1A242FAD919685818A0420BD111
:1024E80020680144581882421960DDD1106852688A
:1024F8005A6001441960D7E702D90C232B60D3E74F
:10250800206821188A4204BF11685268626004BFBB
:10251800091821605C60C7E738BD00BF04020020CD
:1025280070B5CD1C25F0030508350C2D38BF0C25DA
:10253800002D064601DBA94203D90C233360002095
:1025480070BD00F069F8214A1468214691B9204C01
:1025580023681BB9304600F03DF820602946304614
:1025680000F038F8431C24D10C233360304600F0C7
:1025780054F8E4E70B685B1B18D40B2B0FD90B60DE
:10258800CD50CC18304600F048F804F10B00231D5C
:1025980020F00700C31AD3D05A42E250D0E78C4249
:1025A8004B6816BF636013600C46EBE70C4649683E
:1025B800CCE7C41C24F00304A04205D0211A3046FD
:1025C80000F008F80130CFD02560DBE704020020D6
:1025D8000802002038B5064C00230546084623604B
:1025E80000F030F9431C02D1236803B12B6038BDD9
:1025F800BC02002082B001B901A942B14BB11378E5
:102608000B601278101C18BF012002B070471046EA
:10261800FBE76FF00100F8E77047704749B1FF2A00
:1026280085BF8A2303600A704FF0FF3098BF0120EE
:1026380070470846704700000A4B10B504461868F2
:1026480018B183690BB902F0D7F8132C07D80648DC
:1026580050F83430013302D000EBC40010BD002024
:10266800FCE700BF0C0000201C020020F8B5431C4A
:10267800054609D102F07AF81324064600272046B9
:102688003946ABBE044634602846F8BDF8B5054661
:1026980002F06CF813240646002720463946ABBEE4
:1026A800044634602846F8BD30B585B0CDE901014F
:1026B8000392062401AD20462946ABBE04462046B7
:1026C800FFF7D4FF05B030BD70B50E461546FFF7CD
:1026D800B3FF044630B902F049F8092303604FF00C
:1026E800FF3070BD2A4631460068FFF7DDFF431C06
:1026F8001FBF6368281A1B186360F2E7F7B50C461A
:102708001646FFF799FF054640B902F02FF809234E
:1027180003604FF0FF34204603B0F0BD022E03D90A
:1027280002F024F81623F3E7012E12D14368E418C7
:10273800F6D42B680A26CDE900346F463046394670
:10274800ABBE06463046FFF791FF0028E1DB6C6020
:10275800E1E7022EEDD102AF036847F8083D0C26E9
:1027680030463946ABBE06463046FFF77FFF431C6E
:10277800CFD00444DDE7FFF7C1BF30B585B0CDE960
:1027880001010392052401AD20462946ABBE04464B
:102798002046FFF76BFF05B030BD70B50E461546F5
:1027A800FFF74AFF044630B901F0E0FF0923036050
:1027B8004FF0FF3070BD2A4631460068FFF7DDFF55
:1027C800021EF5DB6368A81A0344AA426360F1D1CC
:1027D8000020BDE87040FFF759BF37B502AD0224AD
:1027E80045F8040D20462946ABBE04462046FFF7AF
:1027F8003DFF03B030BD000038B50546FFF71CFFAC
:10280800044630B901F0B2FF092303604FF0FF30EE
:1028180038BD013D012D09D8094B9A681B699A42B8
:1028280004D14FF0FF3303600020F1E72068FFF781
:10283800D4FF0028ECD14FF0FF332360E8E700BF56
:102848001C0200200D4B196810B5024609B90C4945
:1028580019601868694602448A4206D809490A4C30
:102868000968A14208D08A4206D901F07FFF0C23EB
:1028780003604FF0FF3010BD1A60FCE70C02002027
:1028880050030020DC010020ADDEFECA70B50C4606
:10289800FFF7D2FE064630B901F068FF092303604E
:1028A8004FF0FF3070BD636843F4005363604FF42A
:1028B800806363640C2528463146ABBE054628462E
:1028C800FFF7D4FE431C1CBF20610020EAE70B463B
:1028D80010B50021044658221846FEF731F9014682
:1028E8002046BDE81040FFF7D1BF38B50D46044675
:1028F800582200212846FEF723F92046002100F03F
:1029080011F8431C04460BD06B6843F401436B6019
:102918002946FFF7BBFF05462046FFF76DFF2C460B
:10292800204638BD2DE9F0472B4B96B082460E461F
:102938000025984653F83540611C4FEAC50736D044
:102948000135142DF6D101F011FF182303604FF063
:10295800FF343CE0C6F3004440F20163B20748BFCD
:1029680044F002041E4218BF44F00404330748BF71
:1029780024F00404504648BF44F00804CDF800A0F1
:10298800FDF71EFCCDE90140012420464946ABBEB7
:102998000446002C06DB4744002348F835407B609A
:1029A8002C4614E02046FFF771FE04460FE006F4BB
:1029B8002063B3F5206FE946CCD149465046FFF76E
:1029C80094FF0130C6D001F0D1FE112303602046E8
:1029D80016B0BDE8F08700BF1C0200202DE9F743C0
:1029E80007468846294800211546FFF79BFF2A46D7
:1029F800044600213846FEF7A3F8631C15D020468C
:102A0800FFF71AFE0C26814630464946ABBE0646FD
:102A18003046FFF72BFE032802DD0338A84208DC06
:102A28002046FFF7E9FE4FF0FF34204603B0BDE82B
:102A3800F08304220DEB02012046FFF745FE032830
:102A4800EEDD9DF80430532BEAD19DF80530482B74
:102A5800E6D19DF80630462BE2D19DF80730422B8F
:102A6800DED1012241462046FFF748FE0028D7DB89
:102A78002A4639462046FFF727FE05462046FFF737
:102A8800BBFE2846FFF7F2FD0446CEE76F5100086B
:102A980037B50A4D0A4C0021012201A8296022609D
:102AA800FFF79CFF002807DD9DF8043003F00102C2
:102AB80003F002032A60236003B030BDE001002068
:102AC800E401002010B5044C2268002A01DAFFF75F
:102AD800DFFF206810BD00BFE40100202DE9F04FA2
:102AE80085B0DFF8B090CDF8049003230024039359
:102AF8000DF104080294012528464146ABBE05465F
:102B0800204E214A356023464FF0FF31144642F8E3
:102B180033100133142BFAD1FFF7D4FF1B4DD0B17A
:102B28004FF0030A0423CDF804900127CDF80CA038
:102B3800029338464146ABBE8346154BCDF8049008
:102B4800C3F800B00823CDF80CA0029338464146DC
:102B5800ABBE07462F602B68013302BF0C4B1B68C6
:102B68002B603368236000266660FFF7ABFF30B147
:102B7800074B1B68C4E902362B68C4E9043605B064
:102B8800BDE8F08F140200201C0200201002002073
:102B9800180200208551000870B5FFF74DFD092582
:102BA800044620B901F0E2FD0560204670BD2846C4
:102BB8002146ABBE0446012CF7D001F0D7FD002416
:102BC8000646132528462146ABBE05463560ECE788
:102BD800104B1B680BB90120704710B504464FF421
:102BE8007A70B0FBF3F30C4A1068B0FBF3F000F016
:102BF8009FF868B90F2C01D901200AE0002221466C
:102C08004FF0FF3000F052F8024B5C60002000E00B
:102C1800012010BD000000200800002010B503208E
:102C280000F032F80020FFF7D3FF10B1012420464E
:102C380010BD044601F0BEFCF9E70000034A136822
:102C4800034909680B441360704700BFC0020020A5
:102C580000000020014B1868704700BFC002002028
:102C680038B50446FFF7F6FF0546B4F1FF3F02D03A
:102C7800044B1B681C44FFF7EDFF401BA042FAD32E
:102C880038BD00BF00000020074AD36823F4E06382
:102C98001B041B0C000200F4E060184340F0BF6006
:102CA80040F40030D060704700ED00E030B4174BBE
:102CB800DB68C3F30223C3F10704042C28BF0424F0
:102CC8001D1D062D18D9033B4FF0FF3505FA04F4F6
:102CD80021EA0401994005FA03F322EA03031943A0
:102CE80000280BDB0901C9B200F1604000F5614022
:102CF80080F8001330BC70470023E5E700F00F00B0
:102D08000901C9B2024B1954F4E700BF00ED00E015
:102D180014ED00E0002807DB00F01F024009012342
:102D28009340024A42F82030704700BF00E100E0BB
:102D38000138B0F1807F0AD2064B5860064AF0216C
:102D480082F823100020986007221A60704701203B
:102D5800704700BF10E000E000ED00E070B4446C84
:102D680004F01C05066C0124AC40746004686360C0
:102D78008368102B05D0036899600368DA6070BC1B
:102D8800704703689A600368D960F8E7002869D03B
:102D980010B403460168344A914245D8334A0A447C
:102DA8003349A1FB0212120992004264314A0264BB
:102DB800022283F825201868016821F4FF4121F0D8
:102DC80070019A68DC6822431C6922435C692243CB
:102DD8009C692243DC6922431C6A22430A4302603D
:102DE8009A68B2F5804F15D0196C224A914226D0C4
:102DF800214A1168586C00F01C040F20A04021EAF9
:102E080000011160116858685C6C04F01C04A04053
:102E1800014311600020D863012283F8252083F83C
:102E280024005DF8044B7047144A0A441049A1FB7A
:102E38000212120992004264114A0264B8E7A832E9
:102E48001168586C00F01C040F20A04021EA000112
:102E58001160116858685C6C04F01C04A0400143C0
:102E68001160D7E70120704707040240F8FFFDBF53
:102E7800CDCCCCCC00000240A8040240F8FBFDBF3A
:102E88000004024038B590F82440012C33D00124C6
:102E980080F8244090F82540E4B2012C04D00023A7
:102EA80080F82430022038BD0446022084F825002A
:102EB8000020E0632568286820F00100286020468B
:102EC800FFF74CFF236B5BB12268136843F00E03D6
:102ED80013602268136843F0010313600020E2E7DF
:102EE8002268136823F0040313602268136843F010
:102EF8000A031360EDE70220D5E738B5036C1968BB
:102F080004682568436C03F01C0304229A400A42B3
:102F180015D015F0040F12D0236813F0200F03D139
:102F2800236823F004032360436C03F01C02016C44
:102F3800042393404B60036B03B1984738BD0222CA
:102F48009A400A421CD015F0020F19D0236813F0DA
:102F5800200F06D1236823F00A032360012380F899
:102F68002530436C03F01C02016C022393404B6034
:102F7800002380F82430C36A002BDFD09847DDE7B0
:102F8800082202FA03F30B42D8D015F0080FD5D067
:102F9800236823F00E032360436C03F01C03016CC9
:102FA800012202FA03F34B60C26380F82520002354
:102FB80080F82430436B002BC0D09847BEE7000050
:102FC800F0B583B000233FE0C66A26EA0406C5F3DD
:102FD800C0049C403443C4625FE0062400E000243F
:102FE800B4403C430235644E46F82540634C25689E
:102FF800D44304EA05064F6817F4803F01D042EA3B
:1030080005065E4D2E606D6804EA05064F6817F4E4
:10301800003F01D042EA0506584D6E60AD6804EAEB
:1030280005064F6817F4801F01D042EA0506534D84
:10303800AE60ED682C404E6816F4001F01D042EADD
:1030480005044E4AD46001330A6832FA03F400F0EA
:10305800918001249C402240F5D04D686E1E012EBF
:1030680003D9112D01D0122D12D186685F000325D6
:10307800BD4026EA0506CD68BD40354385604668F3
:1030880026EA04064D68C5F300159D4035434560A2
:103098004D6805F00306032E96D0C5685F0003242B
:1030A800BC40E44325408E68BE402E43C6604D6850
:1030B800022D01D0122D13D1DE08083650F826E073
:1030C80003F007054FEA850C0F2505FA0CF52EEAE3
:1030D800050E0D6905FA0CF545EA0E0540F826506F
:1030E80005682C404D6805F00305BD402C4304607D
:1030F8004C6814F0805FA6D0214C256E45F0010580
:103108002566246E04F001040194019C9D08AE1C00
:10311800194C54F8267003F00304A6000F24B44099
:1031280027EA0407B0F1904F3FF459AF154CA0427D
:1031380016D004F58064A04214D004F58064A0423F
:1031480012D004F58064A04210D004F58064A04237
:103158000ED004F58064A0423FF43FAF07243FE758
:1031680001243DE702243BE7032439E7042437E739
:10317800052435E703B0F0BD00000140000401401C
:103188000010024000040048024B186800F4C060B8
:10319800704700BF00700040B0F5007F0FD01F4B94
:1031A8001B6803F4C063B3F5806F34D01B4A1368FF
:1031B80023F4C06343F48063136000207047174B07
:1031C8001B6803F4C063B3F5007F22D0134A136869
:1031D80023F4C06343F400731360114B1A6832235D
:1031E80003FB02F30F4AA2FB03239B0C013300E00D
:1031F800013B0A4A526912F4806F01D0002BF7D1C3
:10320800064B5B6913F4806F01D1002070470320DF
:103218007047002070470020704700BF00700040D2
:103228000800002083DE1B4330B583B00546204BE1
:103238009B6D13F0805F0BD0FFF7A6FFB0F5007F02
:1032480017D0802D1FD82DD0702D2DD000211BE038
:10325800174CA36D43F08053A365A36D03F080530F
:103268000193019BFFF790FFA36D23F08053A365A3
:10327800E4E7802D03D9A02D03D9022104E0002121
:1032880002E0012100E003210A4A136823F0070342
:103298000B431360136803F007038B4206D0012029
:1032A80003B030BD0221EFE70121EDE70020F7E789
:1032B8000010024000200240284A9368D26802F0B9
:1032C800030213F00C030AD00C2B06D0042B1FD0DA
:1032D800082B20D00020024610E0012AF6D11F4A10
:1032E800126812F0080F0CD11C4AD2F89420C2F3CD
:1032F80003221B4951F8222043B100200C2B0DD08A
:103308007047164A1268C2F30312F2E71046F5E74F
:1033180014480022F2E714480022EFE70F4BDB685D
:1033280003F00303022B15D0032B15D00B4BD868E1
:10333800C0F302100130D968C1F3062102FB01F283
:10334800B2FBF0F2D868C0F3416001304000B2FB34
:10335800F0F0D5E7034AE9E7034AE7E7001002403F
:10336800F84E00080024F40000127A00002800F04B
:103378000083F0B583B00446AF4B9D6805F00C059B
:10338800DE6806F00306036813F0100F5BD0E5B1A2
:103398000C2D18D0A369002B00F0BC80A64A136836
:1033A80043F001031360FFF755FC0746A24B1B6867
:1033B80013F0020F40F09B80FFF74CFCC01B022863
:1033C800F4D90323E1E2012EE4D19B4B1B6813F0EF
:1033D800020F03D0A369002B00F0CE82206A964B1F
:1033E8001B6813F0080F5CD0934B1B6803F0F003C5
:1033F80098425DD8904B1A6842F008021A601A6821
:1034080022F0F002216A0A431A605A6822F47F42C5
:10341800E16942EA01225A60002D61D0FFF74CFFB2
:10342800854B9B68C3F30313844AD35C03F01F03E3
:10343800D840834B1860834B1868FFF7C9FB0346D5
:10344800002840F0A282236813F0010F00F0818069
:10345800082D75D00C2D71D06368B3F5803F00F04E
:103468009780B3F5A02F00F09980734B1A6822F467
:1034780080321A601A6822F480221A606368002B6E
:1034880000F09980FFF7E6FB07466B4B1B6813F4C7
:10349800003F5ED1FFF7DEFBC01B6428F5D903238C
:1034A80073E2654BD3F894301B0903F0F0039FE7F0
:1034B800FFF7BAFE002840F061825F4B1A6842F0BD
:1034C80008021A601A6822F0F002216A0A431A6098
:1034D8005A6822F47F42E16942EA01225A609DE774
:1034E800206AFFF7A1FE002898D001234DE2524B35
:1034F8001A6842F008021A601A6822F0F002216A7B
:103508000A431A605A6822F47F42E16942EA0122BA
:103518005A6098E7484A136823F001031360FFF7DD
:1035280099FB0746444B1B6813F0020F8BD0FFF73B
:1035380091FBC01B0228F5D9032326E2032E8BD169
:103548003D4B1B6813F4003F03D06368002B00F069
:103558001782236813F0020F4FD0042D3CD00C2D96
:1035680038D0E368002B78D0334A136843F480736B
:103578001360FFF76FFB06462F4B1B6813F4806F31
:1035880062D1FFF767FB801B0228F5D90323FCE112
:10359800294A136843F4803313606FE703F18043CB
:1035A800A3F53C331A6842F480221A601A6842F480
:1035B80080321A6062E7FFF74DFB07461E4B1B6817
:1035C80013F4003FC5D0FFF745FBC01B6428F5D9AD
:1035D8000323DAE1022EC4D1174B1B6813F4806F62
:1035E80003D0E368002B00F0CD81134A536823F021
:1035F800F853216943EA01635360236813F0080F05
:1036080056D06369002B3CD00B4AD2F8943043F073
:103618000103C2F89430FFF71DFB0646064BD3F8AA
:10362800943013F0020F43D1FFF714FB801B0228DC
:10363800F4D90323A9E100BF00100240284F000875
:103648000800002004000020B84A536823F0F8530B
:10365800216943EA01635360CFE7B44A136823F44E
:1036680080731360FFF7F6FA0646B04B1B6813F435
:10367800806FC2D0FFF7EEFA801B0228F5D903232A
:1036880083E1AA4AD2F8943023F00103C2F89430B7
:10369800FFF7E0FA0646A54BD3F8943013F0020F73
:1036A80006D0FFF7D7FA801B0228F4D903236CE170
:1036B800236813F0040F7AD09C4B9B6D13F0805F46
:1036C8000BD19A4B9A6D42F080529A659B6D03F02C
:1036D80080530193019B012600E00026944B1B6850
:1036E80013F4807F26D0A368012B37D0052B3DD05B
:1036F8008E4BD3F8902022F00102C3F89020D3F823
:10370800902022F00402C3F89020A368002B3BD03D
:10371800FFF7A0FA0746854BD3F8903013F0020F55
:1037280044D1FFF797FAC01B41F288339842F2D987
:1037380003232AE17E4A136843F480731360FFF77A
:1037480089FA07467A4B1B6813F4807FCBD1FFF7C1
:1037580081FAC01B0228F5D9032316E1734AD2F86F
:10376800903043F00103C2F89030CEE76F4BD3F8A6
:10377800902042F00402C3F89020D3F8902042F041
:103788000102C3F89020C0E7FFF764FA0746674BC9
:10379800D3F8903013F0020F08D0FFF75BFAC01B84
:1037A80041F288339842F2D90323EEE06EBBA36A54
:1037B800002B00F0E980022B2DD00C2D00F0EE80BC
:1037C8005A4B1A6822F080721A601B6813F0205F47
:1037D80004D1564AD36823F00303D360534AD3680D
:1037E80023F0887323F48033D360FFF733FA044659
:1037F8004E4B1B6813F0007F00F0B980FFF72AFAE0
:10380800001B0228F4D90323BFE0484A936D23F034
:1038180080539365CBE7454BDB6803F00301E26A0D
:1038280091420FD00C2D00F0B380404B1B6813F071
:10383800806F40F0AF803D4B1B6813F0805F2DD048
:103848000123A2E003F07002216B0139B2EB011FE2
:10385800E8D103F4FE42616BB2EB012FE2D103F42D
:103868000031A26B073A18BF01229142DAD103F462
:10387800C001E26B5208013AB1EB425FD2D103F0CA
:10388800C063226C5208013AB3EB426FCAD1274B8E
:103898001B6813F0007F51D0002376E0234A136899
:1038A80023F080731360FFF7D5F905461F4B1B689B
:1038B80013F0007F06D0FFF7CDF9401B0228F5D999
:1038C800032362E0194AD3681A491940E36A206B56
:1038D800013843EA0013606B43EA0023E06B4008B9
:1038E800013843EA4053206C4008013843EA4063FA
:1038F800A06B000943EA40430B43D360136843F0CD
:1039080080731360D36843F08073D360FFF7A2F924
:103918000446064B1B6813F0007F0DD1FFF79AF998
:10392800001B0228F5D903232FE000BF0010024036
:10393800007000408C809DF9002326E0184B1A681F
:1039480042F080721A60DA6842F08072DA60FFF73B
:1039580081F9044604E0FFF77DF9001B02281BD813
:103968000F4B1B6813F0007FF5D000230DE00023F8
:103978000BE0012318467047012306E0012304E009
:10398800012302E0012300E00023184603B0F0BD44
:103998000123FAE70123F8E70323F6E70123F4E715
:1039A80000100240002800F09B8070B504464E4B82
:1039B8001B6803F007038B420CD24B4A136823F0B1
:1039C80007030B431360136803F007038B4201D00E
:1039D800012070BD0D46236813F0010F39D06368CC
:1039E800032B09D0022B26D063BB404A126812F081
:1039F800020F06D10120ECE73C4A126812F0007F62
:103A080070D03A498A6822F0030213438B60FFF7AB
:103A180021F90646354B9B6803F00C036268B3EB4B
:103A2800820F16D0FFF716F9801B41F288339842AF
:103A3800F0D90320CDE72D4A126812F4003FE0D1F7
:103A48000120C6E7294A126812F4806FD9D10120F3
:103A5800BFE7236813F0020F06D0244A936823F0C7
:103A6800F003A1680B4393601F4B1B6803F0070327
:103A7800AB420CD91C4A136823F007032B4313608D
:103A8800136803F00703AB4201D00120A1E72368C4
:103A980013F0040F06D0154A936823F4E063E16835
:103AA8000B439360236813F0080F07D00F4A9368FD
:103AB80023F46053216943EAC1039360FFF7FCFBD9
:103AC8000A4B9B68C3F30313094AD35C03F01F0333
:103AD800D840084B1860084B1868FFF779F878E762
:103AE80001207047012074E70020024000100240C6
:103AF800284F0008080000200400002030B4036AA2
:103B080023F001030362036A4468826922F4803265
:103B180022F073020D682A4323F002038D682B43B9
:103B28001C4DA8420FD005F50065A8420BD005F53D
:103B38004065A84207D005F58065A84203D005F581
:103B48008065A84205D123F00803CD682B4323F0F4
:103B58000403104DA8420FD005F50065A8420BD00C
:103B680005F54065A84207D005F58065A84203D051
:103B780005F58065A84205D124F440754C692C43AD
:103B88008D692C43446082614A684263036230BC99
:103B9800704700BF002C014030B4036A23F48073DF
:103BA8000362036A4468C26922F4803222F0730215
:103BB8000D682A4323F400738D6843EA0523184DE2
:103BC800A84203D005F50065A84206D123F4006396
:103BD800CD6843EA052323F48063114DA8420FD032
:103BE80005F50065A8420BD005F54065A84207D049
:103BF80005F58065A84203D005F58065A84207D180
:103C080024F440544D6944EA05148D6944EA0514C6
:103C18004460C2614A68C263036230BC704700BF37
:103C2800002C014030B4036A23F480530362036A12
:103C38004468C26922F0807222F4E6420D6842EAC2
:103C4800052223F400538D6843EA05330F4DA8423B
:103C58000FD005F50065A8420BD005F54065A842D0
:103C680007D005F58065A84203D005F58065A84210
:103C780004D124F480444D6944EA85144460C26147
:103C88004A680264036230BC704700BF002C0140E0
:103C980030B4036A23F480330362036A4468426DD4
:103CA80022F4803222F070020D682A4323F4003394
:103CB8008D6843EA05430F4DA8420FD005F500650E
:103CC800A8420BD005F54065A84207D005F58065E8
:103CD800A84203D005F58065A84204D124F48034B5
:103CE8004D6944EA0524446042654A688265036276
:103CF80030BC7047002C014030B4036A23F48013B1
:103D08000362036A4468426D22F0807222F4E04242
:103D18000D6842EA052223F400138D6843EA05532F
:103D28000F4DA8420FD005F50065A8420BD005F548
:103D38004065A84207D005F58065A84203D005F57F
:103D48008065A84204D124F480244D6944EA85247E
:103D5800446042654A68C265036230BC704700BF70
:103D6800002C0140704710B5846A012384F83D3067
:103D7800636A83420BD0A36A834210D0E36A83420A
:103D880010D0236B834204D10823237701E0012359
:103D980023772046FFF7E6FF0023237710BD022391
:103DA8002377F6E704232377F3E7704710B5846A8F
:103DB800012384F83D30636A83420BD0A36A8342AF
:103DC80010D0E36A834210D0236B834204D10823C6
:103DD800237701E0012323772046FFF7E6FF00233E
:103DE800237710BD02232377F6E704232377F3E72D
:103DF800704708B5806A012380F83D30FFF7F8FF67
:103E080008BD00000368304A904212D0B0F1804FDC
:103E18000FD0A2F5943290420BD002F58062904206
:103E280007D002F58062904203D002F594329042A6
:103E380003D123F070034A681343234A90421ED0EB
:103E4800B0F1804F1BD0A2F59432904217D002F502
:103E58008062904213D002F5806290420FD002F542
:103E6800943290420BD002F54062904207D002F59E
:103E78008062904203D002F58062904203D123F41D
:103E88004073CA68134323F080034A6913430360ED
:103E98008B68C3620B6883620B4B98420FD003F5A3
:103EA800006398420BD003F54063984207D003F5AE
:103EB8008063984203D003F58063984201D10B696F
:103EC8000363012343617047002C0140A8B110B57A
:103ED800044690F83D305BB1022384F83D30211D43
:103EE8002068FFF78FFF012384F83D30002010BDC4
:103EF80080F83C3000F076FBEEE7012070470000C8
:103F080030B4036A23F010030362036A44688269C9
:103F180022F0807222F4E6420D6842EA052223F07C
:103F280020038D6843EA0513174DA84203D005F511
:103F38000065A84206D123F08003CD6843EA051343
:103F480023F04003104DA8420FD005F50065A842A4
:103F58000BD005F54065A84207D005F58065A84255
:103F680003D005F58065A84207D124F440644D6963
:103F780044EA85048D6944EA8504446082614A689C
:103F88008263036230BC7047002C014038B590F85A
:103F98003C30012B00F092800D460446012380F846
:103FA8003C30022380F83D30142A1ED8DFE802F0A6
:103FB8000B1D1D1D241D1D1D381D1D1D4B1D1D1DEB
:103FC8005F1D1D1D72000068FFF798FD2268936948
:103FD80043F0080393612268936923F00403936113
:103FE8002268936929690B439361012384F83D3062
:103FF800002084F83C0038BD0068FFF781FF226884
:10400800936943F4006393612268936923F480639E
:10401800936122689369296943EA01239361E4E77C
:104028000068FFF7B9FD2268D36943F00803D3613C
:104038002268D36923F00403D3612268D36929690C
:104048000B43D361D1E70068FFF7ECFD2268D36921
:1040580043F40063D3612268D36923F48063D36196
:104068002268D369296943EA0123D361BDE700685F
:10407800FFF70EFE2268536D43F00803536522686C
:10408800536D23F0040353652268536D29690B436C
:104098005365AAE70068FFF72FFE2268536D43F4C3
:1040A800006353652268536D23F480635365226867
:1040B800536D296943EA0123536596E702209AE77D
:1040C80010B401F01F01012303FA01F4036A23EA83
:1040D80004030362036A8A40134303625DF8044BD6
:1040E8007047000070B590F83D60F6B2022E00F0FF
:1040F800A18090F83D60F6B2012E0DD016460D460F
:1041080004460C2927D8DFE801F010262626522677
:104118002626692626267F001AB1022480F83D400B
:10412800ECE7002BF9D0012040E0426A4849D1620F
:10413800426A48491163426A474951630268343206
:104148003146406AFEF79EFE002875D12268D36882
:1041580043F40073D360012229462068FFF7B0FFBB
:1041680023683E4A93420FD002F5006293420BD077
:1041780002F54062934207D002F58062934203D071
:1041880002F58062934203D15A6C42F400425A64A9
:1041980022689168324B0B40062B55D0B3F5803F0F
:1041A80054D0136843F001031360002070BD826A85
:1041B8002749D162826A27491163826A2649516375
:1041C800026838323146806AFEF75CFE002835D135
:1041D8002268D36843F48063D360BCE7C26A1C4991
:1041E800D162C26A1B491163C26A1B4951630268E2
:1041F8003C323146C06AFEF745FE08BB2268D368E8
:1042080043F40063D360A6E7026B1149D162026BE5
:1042180010491163026B10495163026840323146FC
:10422800006BFEF72FFE68B92268D36843F4805309
:10423800D36090E70220B9E70120B7E70120B5E78E
:104248000120B3E70120B1E70020AFE70020ADE788
:104258006F3D0008B53D0008FB3D0008002C0140FB
:104268000700010090F83C30012B42D030B4012304
:1042780080F83C30022380F83D3002685368956826
:104288001D4CA24203D004F50064A24203D123F4DA
:1042980070034C68234323F070030C682343536076
:1042A8000368154A934216D0B3F1804F13D0A2F594
:1042B800943293420FD002F5806293420BD002F5FC
:1042C8008062934207D002F59432934203D002F5FC
:1042D8004062934204D125F080058A6815439D60A9
:1042E800012380F83D30002380F83C30184630BC6C
:1042F80070470220704700BF002C014090F83C3006
:10430800012B3ED010B4012380F83C30CB6823F455
:1043180040738A68134323F480634A68134323F481
:1043280000630A68134323F480530A69134323F490
:1043380000534A69134323F480438A6A134323F4DE
:1043480070238A6943EA024302680F4CA24203D0F1
:1043580004F50064A2420CD123F470034C6A43EACA
:10436800045323F08073CC69234323F00073096A54
:104378000B435364002380F83C3018465DF8044B27
:1043880070470220704700BF002C014082B0064BE6
:10439800DA6C42F00102DA64DB6C03F0010301938A
:1043A800019B02B0704700BF0010024000B583B007
:1043B8000A4B9A6C42F001029A649B6C03F0010369
:1043C8000193019B002211461120FEF76FFC11207A
:1043D800FEF7A0FC03B05DF804FB00BF001002402C
:1043E80008B5024800F0EEFA08BD00BF8C5100087D
:1043F80010B596B000241394149415940C940D944D
:104408000E940F941094119412942C22214601A812
:10441800FCF796FB2748284B03600323436084601E
:104428001923C3600461446180238361FFF74EFD53
:10443800002833D1002313931493159313A91D480F
:10444800FFF710FF00282CD160230C930A230D934B
:1044580000230E930F9310931193129308220CA923
:104468001448FFF793FDF8B90023019302930393CF
:10447800049305934FF400520692079308934FF064
:10448800007209920A930B9301A90A48FFF736FFB5
:1044980068B9084800F0DEF816B010BDFFF7A0FFB5
:1044A800C8E7FFF79DFFCFE7FFF79AFFDCE7FFF7C5
:1044B80097FFEEE70C030020002C014000B597B0F1
:1044C8002422002106A8FCF73BFB0023009301935C
:1044D8000293039304931023059301220B92602304
:1044E8000D9302230F931092119228221292072201
:1044F80013921493159305A8FEF738FFA0B90F235C
:10450800009303230193002302930393049304214C
:104518006846FFF747FA50B94FF40070FEF73CFEC3
:1045280040B917B05DF804FBFFF75AFFE7E7FFF75C
:1045380057FFF1E7FFF754FFF3E7000000B5ADF2CE
:104548000C7DFEF7CBFAFEF769FBFFF7B7FFFFF725
:104558001DFFFFF72BFFFFF74BFF144800F032FA5F
:10456800002304E001AA0021D15401339BB240F298
:104578004B429342F6D940F24C4304E001AA102181
:10458800D15401339BB240F203729342F6D940F200
:10459800047301AA08210648FFF7A4FD18B90120F1
:1045A800FEF75EFBFBE7FFF71BFFF8E79C510008EF
:1045B8000C03002082B00A4B1A6E42F001021A6600
:1045C8001A6E02F001020092009A9A6D42F080522F
:1045D8009A659B6D03F080530193019B02B070476D
:1045E800001002400268184B9A4200D0704710B57C
:1045F80082B0044603F564431A6E42F400621A66F8
:104608001B6E03F400630193019B1048104B036079
:1046180007234360102383600023C3608022026164
:104628004FF4007242614FF4806282612022C261BD
:104638000362FEF7ABFB20B9044BA3629C6202B095
:1046480010BDFFF7CDFEF7E7002C0140C4020020A3
:104658003000024000B587B0002301930293039312
:104668000493059302680F4B9A4202D007B05DF895
:1046780004FB03F56443DA6C42F00102DA64DB6C94
:1046880003F001030093009B4FF44073019302234E
:1046980002930123059301A94FF09040FEF790FC87
:1046A800E4E700BF002C01407047FEE7FEE7FEE7A5
:1046B800FEE770477047704708B5FEF7BFFA08BDB8
:1046C80008B50248FEF719FC08BD00BFC402002067
:1046D8000F49D1F8883043F47003C1F888300D4B86
:1046E8001A6842F001021A60002098601A6822F0E5
:1046F800A85222F410221A604FF48052DA601A6825
:1047080022F480221A6098614FF000638B60704732
:1047180000ED00E000100240DFF834D0002103E093
:104728000C4B5B58435004310B480C4B42189A42CF
:10473800F6D30B4A02E0002342F8043B094B9A42A5
:10474800F9D3FFF7C5FFFCF7D7F9FFF7F7FEFEE748
:10475800008001201852000800000020E801002015
:10476800E80100204C030020FEE70000014B186818
:10477800704700BF0C000020002310B50446C0E9B4
:104788000033836081814366C281C0E90433836159
:10479800194608225C30FCF7D3F9054B6362054BD8
:1047A800A362054BE362054B2462236310BD00BF7F
:1047B800DD490008FF490008374A00085B4A00083D
:1047C800014900F085B800BF354D000870B54A1E94
:1047D800682555430E4605F17401FDF7A1FE044610
:1047E80040B10021C0E900160C30A06005F1680254
:1047F800FCF7A6F9204670BD836910B5044633BBA3
:10480800C0E912330365124B124A1B688262984250
:1048180004BF0123836100F01FF86060204600F0A8
:104828001BF8A060204600F017F80022E060042181
:104838006068FFF7A1FF01220921A068FFF79CFF2C
:1048480002221221E068FFF797FF0123A36110BD40
:10485800404F0008C9470008F8B51B4B1E68B369EC
:10486800074613B93046FFF7C7FF4836D6E9013483
:10487800013B03D5336833B13668F7E7B4F90C5018
:104888006DB16834F4E704213846FFF79FFF3060C4
:104898000028F1D10C233B6004462046F8BD0B4BA1
:1048A8006566C4E90055A560C4E90335C4E9055542
:1048B8000822294604F15C00FCF742F9C4E90D55C9
:1048C800C4E91255E9E700BF404F00080100FFFFA7
:1048D8002DE9F8438046894600F14804002614B9BA
:1048E8003046BDE8F883D4E90175013F01D5246855
:1048F800F5E7AB89012B07D9B5F90E30013303D0A1
:1049080029464046C84706436835EEE770B50E4667
:10491800054618B183690BB9FFF76EFFAB69AC6840
:1049280013B92846FFF768FF234B9C4217D16C68E0
:10493800A3891B071DD52369DBB1013EA36816F8BF
:10494800011F013BA360E9B9002B2EDA22460A2198
:10495800284600F083F8013011D00A2011E0174BE7
:104968009C4201D1AC68E3E7154B9C4208BFEC6858
:10497800DEE72146284600F0D5F80028DDD04FF0C4
:10498800FF3070BD002B04DAA2699A4206DC0A29BE
:1049980004D023685A1C22601970CFE722462846A3
:1049A80000F05CF80130C9D1E9E723680A205A1CF5
:1049B80022601870E5E700BFC4510008E451000800
:1049C800A4510008024B01461868FFF79FBF00BFBB
:1049D8000C00002010B50C46B1F90E1000F046FA94
:1049E8000028ABBF636DA3891B1823F48053ACBFA9
:1049F8006365A38110BD2DE9F0411F468B89DB0556
:104A080005460C46164605D502230022B1F90E10BC
:104A180000F0B6F9A389B4F90E1023F48053A381EA
:104A280032463B462846BDE8F04100F069B810B56B
:104A38000C46B1F90E1000F0A3F9431CA38915BF69
:104A4800606523F4805343F48053A38118BFA38186
:104A580010BDB1F90E1000F0D3B80000F8B50E463D
:104A68001446054618B183690BB9FFF7C5FE214BFB
:104A78009C422AD16C68A369A360A3891A072ED522
:104A8800236963B323692068C01A6369F6B2834255
:104A9800374604DC2146284600F048F928BBA368BD
:104AA800013BA36023685A1C22601E7063690130B1
:104AB800834204D0A389DB0719D50A2E17D12146D2
:104AC800284600F033F990B10FE00B4B9C4201D11E
:104AD800AC68D0E7094B9C4208BFEC68CBE721469D
:104AE800284600F01FF80028CCD04FF0FF37384692
:104AF800F8BD00BFC4510008E4510008A4510008E3
:104B080038B5074C054608461146002222601A4669
:104B1800FDF743FE431C02D1236803B12B6038BD67
:104B2800BC020020324B70B51D6806460C4625B104
:104B3800AB6913B92846FFF75FFE2E4B9C420FD195
:104B48006C68B4F90C309AB215072CD4D00611D47D
:104B58000922326043F04003A3814FF0FF303EE06A
:104B6800254B9C4201D1AC68EBE7244B9C4208BF23
:104B7800EC68E6E7510712D5616B41B104F14403D3
:104B8800994202D03046FDF77DFC00236363A38978
:104B980023F02403A3810023636023692360A3898E
:104BA80043F00803A38123694BB9A38903F4207355
:104BB800B3F5007F03D02146304600F017F9A289EB
:104BC80012F001030CD00023A36063695B42A36168
:104BD800236953B9B4F90C3013F08000BAD170BD11
:104BE800920758BF6369A360F2E70020F7E700BFA8
:104BF8000C000020C4510008E4510008A45100082A
:104C080038B5064C0023054608462360FDF7F4FD39
:104C1800431C02D1236803B12B6038BDBC020020BD
:104C28008A892DE9F041054610070C4658D44B688F
:104C3800002B05DC0B6C002B02DC0020BDE8F081AA
:104C4800E66A002EF9D0002312F480522F68216AF8
:104C58002B6032D0606DA3895A0705D56368C01AE6
:104C6800636B0BB1236CC01A00230246E66A216A03
:104C78002846B047431CA38906D129681D2948D86E
:104C8800294ACA40D60744D500226260D90422695D
:104C9800226004D5421C01D12B6803B96065616BA1
:104CA8002F600029C9D004F14403994202D0284654
:104CB800FDF7E8FB00206063C0E701232846B04702
:104CC800411CC8D12B68002BC5D01D2B01D0162B39
:104CD80001D12F60B1E7A38943F04003A381ADE779
:104CE8000F69002FA9D093070E6808BF4B690F60A2
:104CF80018BF0023A6EB07088B60B8F1000F9CDDF6
:104D080043463A46216AA66A2846B047002806DC88
:104D1800A38943F04003A3814FF0FF308EE7074497
:104D2800A8EB0008E9E700BF0100402038B50B698F
:104D380005460C46DBB118B183690BB9FFF75CFD7A
:104D48000C4B9C4209D16C68B4F90C307BB12146FC
:104D58002846BDE83840FFF763BF074B9C4201D1A6
:104D6800AC68F1E7054B9C4208BFEC68ECE7002013
:104D780038BD00BFC4510008E4510008A451000820
:104D880038B5074C054608461146002222601A46E7
:104D9800FDF7F1FC431C02D1236803B12B6038BD39
:104DA800BC02002070B50E46B1F90E10002996B06D
:104DB80014461D4607DA00232B60B3891A0610D45F
:104DC8004FF480630EE06A4600F062F80028F2DBD8
:104DD800019A02F47042A2F500535A425A412A60DD
:104DE800EEE740230020236016B070BD8B8973B5B1
:104DF8009D0706460C4607D504F147032360236147
:104E08000123636102B070BD01AB6A46FFF7CAFFB8
:104E1800009905463046FDF783FB48B9B4F90C30D4
:104E28009A05EFD423F0030343F00203A381E3E7D9
:104E38000D4BB362A389206043F08003A381009BDC
:104E48006361019B20615BB1B4F90E10304600F03C
:104E580031F828B1A38923F0030343F00103A381A8
:104E6800A3891D43A581CDE7C947000838B5074C7C
:104E7800054608461146002222601A46FDF724FC22
:104E8800431C02D1236803B12B6038BDBC0200204B
:104E980038B5074C00230546084611462360FDF740
:104EA80016FD431C02D1236803B12B6038BD00BF37
:104EB800BC02002038B5064C00230546084623608E
:104EC800FDF76AFE431C02D1236803B12B6038BD8D
:104ED800BC020020F8B500BFF8BC08BC9E4670476D
:104EE800F8B500BFF8BC08BC9E467047000000003B
:104EF800A0860100400D0300801A060000350C0052
:104F080040420F0080841E0000093D0000127A0014
:104F18000024F40000366E010048E801006CDC0251
:104F28000000000000000000010203040607080951
:104F3800000000000102030410000020494E460052
:104F4800696E66004E414E006E616E003000496E1B
:104F580066696E697479004E614E000000000000B9
:104F68000080E03779C34143176E05B5B5B893465D
:104F7800F5F93FE9034F384D321D30F94877825A29
:104F88003CBF737FDD4F1575000000000000F03F47
:104F9800000000000000244000000000000059400C
:104FA8000000000000408F40000000000088C3405F
:104FB80000000000006AF8400000000080842E41D4
:104FC80000000000D01263410000000084D7974120
:104FD8000000000065CDCD41000000205FA0024226
:104FE800000000E876483742000000A2941A6D429B
:104FF800000040E59C30A2420000901EC4BCD6428E
:1050080000003426F56B0C430080E03779C3414338
:1050180000A0D8855734764300C84E676DC1AB43AE
:10502800003D9160E458E143408CB5781DAF1544CC
:1050380050EFE2D6E41A4B4492D54D06CFF08044A7
:10504800F64AE1C7022DB544B49DD9794378EA44BC
:1050580005000000190000007D0000004300504FCB
:10506800534958002E0000202020202020202020F6
:105078002828282828202020202020202020202000
:105088002020202020202088101010101010101030
:105098001010101010101004040404040404040474
:1050A80004101010101010104141414141410101FC
:1050B80001010101010101010101010101010101D8
:1050C80001011010101010104242424242420202E6
:1050D80002020202020202020202020202020202A8
:1050E8000202101010102000000000000000000054
:1050F80000000000000000000000000000000000A8
:105108000000000000000000000000000000000097
:105118000000000000000000000000000000000087
:105128000000000000000000000000000000000077
:105138000000000000000000000000000000000067
:105148000000000000000000000000000000000057
:105158000000000000000000000000000000000047
:10516800000000000000003A73656D69686F737491
:10517800696E672D6665617475726573003A74743B
:10518800000000004572726F725F48616E646C6562
:105198007200000073746172740000000000000067
:1051A80000000000000000000000000000000000F7
:1051B80000000000000000000000000000000000E7
:1051C80000000000000000000000000000000000D7
:1051D80000000000000000000000000000000000C7
:1051E80000000000000000000000000000000000B7
:1051F80000000000000000000000000000000000A7
:08520800AD01000800000000E8
:08521000890100080000000004
:10521800010000001000000000093D0010000020FF
:1052280000000000C4510008E4510008A45100081F
:105238000000000000000000000000000000000066
:105248000000000000000000000000000000000056
:105258000000000000000000000000000000000046
:105268000000000000000000000000000000000036
:105278000000000000000000000000000000000026
:1052880043000000000000000000000000000000D3
:105298000000000000000000000000000000000006
:1052A80043000000000000000000000000000000B3
:1052B80000000000000000000000000000000000E6
:1052C8004300000000000000000000000000000093
:1052D80000000000000000000000000000000000C6
:1052E8004300000000000000000000000000000073
:1052F80000000000000000000000000000000000A6
:105308004300000000000000000000000000000052
:105318000000000000000000000000000000000085
:105328004300000000000000000000000000000032
:105338000000000000000000000000000000000065
:105348004300000000000000000000000000000012
:105358000000000000000000000000000000000045
:1053680025260008FD250008000000006E500008F2
:105378006C5000086D5000086D5000086D50000812
:105388006D5000086D5000086D5000086D50000801
:105398006D5000086D500008FFFFFFFFFFFFFFFF83
:1053A800FFFFFFFFFFFF0000010041534349490091
:1053B80000000000000000000000000000000000E5
:1053C800000000000000000000004153434949006C
:1053D80000000000000000000000000000000000C5
:1053E800000000000000000000000000ADDEFECA62
:0853F800FFFFFFFFFFFFFFFFB5
:040000050800472187
:00000001FF
